{
  "_format": "hh-sol-artifact-1",
  "contractName": "NFTContract",
  "sourceName": "contracts/NFTContract.sol",
  "abi": [
    {
      "inputs": [],
      "stateMutability": "nonpayable",
      "type": "constructor"
    },
    {
      "anonymous": false,
      "inputs": [
        {
          "indexed": true,
          "internalType": "address",
          "name": "owner",
          "type": "address"
        },
        {
          "indexed": true,
          "internalType": "address",
          "name": "approved",
          "type": "address"
        },
        {
          "indexed": true,
          "internalType": "uint256",
          "name": "tokenId",
          "type": "uint256"
        }
      ],
      "name": "Approval",
      "type": "event"
    },
    {
      "anonymous": false,
      "inputs": [
        {
          "indexed": true,
          "internalType": "address",
          "name": "owner",
          "type": "address"
        },
        {
          "indexed": true,
          "internalType": "address",
          "name": "operator",
          "type": "address"
        },
        {
          "indexed": false,
          "internalType": "bool",
          "name": "approved",
          "type": "bool"
        }
      ],
      "name": "ApprovalForAll",
      "type": "event"
    },
    {
      "anonymous": false,
      "inputs": [
        {
          "indexed": false,
          "internalType": "address",
          "name": "sender",
          "type": "address"
        },
        {
          "indexed": false,
          "internalType": "uint256",
          "name": "tokenId",
          "type": "uint256"
        }
      ],
      "name": "NewNFTMinted",
      "type": "event"
    },
    {
      "anonymous": false,
      "inputs": [
        {
          "indexed": true,
          "internalType": "address",
          "name": "from",
          "type": "address"
        },
        {
          "indexed": true,
          "internalType": "address",
          "name": "to",
          "type": "address"
        },
        {
          "indexed": true,
          "internalType": "uint256",
          "name": "tokenId",
          "type": "uint256"
        }
      ],
      "name": "Transfer",
      "type": "event"
    },
    {
      "inputs": [
        {
          "internalType": "address",
          "name": "to",
          "type": "address"
        },
        {
          "internalType": "uint256",
          "name": "tokenId",
          "type": "uint256"
        }
      ],
      "name": "approve",
      "outputs": [],
      "stateMutability": "nonpayable",
      "type": "function"
    },
    {
      "inputs": [
        {
          "internalType": "address",
          "name": "owner",
          "type": "address"
        }
      ],
      "name": "balanceOf",
      "outputs": [
        {
          "internalType": "uint256",
          "name": "",
          "type": "uint256"
        }
      ],
      "stateMutability": "view",
      "type": "function"
    },
    {
      "inputs": [
        {
          "internalType": "uint256",
          "name": "tokenId",
          "type": "uint256"
        }
      ],
      "name": "getApproved",
      "outputs": [
        {
          "internalType": "address",
          "name": "",
          "type": "address"
        }
      ],
      "stateMutability": "view",
      "type": "function"
    },
    {
      "inputs": [
        {
          "internalType": "address",
          "name": "owner",
          "type": "address"
        },
        {
          "internalType": "address",
          "name": "operator",
          "type": "address"
        }
      ],
      "name": "isApprovedForAll",
      "outputs": [
        {
          "internalType": "bool",
          "name": "",
          "type": "bool"
        }
      ],
      "stateMutability": "view",
      "type": "function"
    },
    {
      "inputs": [],
      "name": "mintNFT",
      "outputs": [],
      "stateMutability": "nonpayable",
      "type": "function"
    },
    {
      "inputs": [],
      "name": "name",
      "outputs": [
        {
          "internalType": "string",
          "name": "",
          "type": "string"
        }
      ],
      "stateMutability": "view",
      "type": "function"
    },
    {
      "inputs": [
        {
          "internalType": "uint256",
          "name": "tokenId",
          "type": "uint256"
        }
      ],
      "name": "ownerOf",
      "outputs": [
        {
          "internalType": "address",
          "name": "",
          "type": "address"
        }
      ],
      "stateMutability": "view",
      "type": "function"
    },
    {
      "inputs": [
        {
          "internalType": "address",
          "name": "from",
          "type": "address"
        },
        {
          "internalType": "address",
          "name": "to",
          "type": "address"
        },
        {
          "internalType": "uint256",
          "name": "tokenId",
          "type": "uint256"
        }
      ],
      "name": "safeTransferFrom",
      "outputs": [],
      "stateMutability": "nonpayable",
      "type": "function"
    },
    {
      "inputs": [
        {
          "internalType": "address",
          "name": "from",
          "type": "address"
        },
        {
          "internalType": "address",
          "name": "to",
          "type": "address"
        },
        {
          "internalType": "uint256",
          "name": "tokenId",
          "type": "uint256"
        },
        {
          "internalType": "bytes",
          "name": "_data",
          "type": "bytes"
        }
      ],
      "name": "safeTransferFrom",
      "outputs": [],
      "stateMutability": "nonpayable",
      "type": "function"
    },
    {
      "inputs": [
        {
          "internalType": "address",
          "name": "operator",
          "type": "address"
        },
        {
          "internalType": "bool",
          "name": "approved",
          "type": "bool"
        }
      ],
      "name": "setApprovalForAll",
      "outputs": [],
      "stateMutability": "nonpayable",
      "type": "function"
    },
    {
      "inputs": [
        {
          "internalType": "bytes4",
          "name": "interfaceId",
          "type": "bytes4"
        }
      ],
      "name": "supportsInterface",
      "outputs": [
        {
          "internalType": "bool",
          "name": "",
          "type": "bool"
        }
      ],
      "stateMutability": "view",
      "type": "function"
    },
    {
      "inputs": [],
      "name": "symbol",
      "outputs": [
        {
          "internalType": "string",
          "name": "",
          "type": "string"
        }
      ],
      "stateMutability": "view",
      "type": "function"
    },
    {
      "inputs": [
        {
          "internalType": "uint256",
          "name": "tokenId",
          "type": "uint256"
        }
      ],
      "name": "tokenURI",
      "outputs": [
        {
          "internalType": "string",
          "name": "",
          "type": "string"
        }
      ],
      "stateMutability": "view",
      "type": "function"
    },
    {
      "inputs": [
        {
          "internalType": "address",
          "name": "from",
          "type": "address"
        },
        {
          "internalType": "address",
          "name": "to",
          "type": "address"
        },
        {
          "internalType": "uint256",
          "name": "tokenId",
          "type": "uint256"
        }
      ],
      "name": "transferFrom",
      "outputs": [],
      "stateMutability": "nonpayable",
      "type": "function"
    }
  ],
  "bytecode": "0x60806040526040518061090001604052806108da8152602001620051216108da91396008908051906020019062000038929190620014c7565b506040518060800160405280605d81526020016200622f605d9139600990805190602001906200006a929190620014c7565b506040518060400160405280600e81526020017f3c2f746578743e0a3c2f7376673e000000000000000000000000000000000000815250600a9080519060200190620000b8929190620014c7565b50604051806108c0016040528060405180606001604052806021815260200162005a2b6021913981526020016040518060600160405280602a8152602001620062f7602a913981526020016040518060600160405280602b815260200162005a82602b913981526020016040518060600160405280602781526020016200659d6027913981526020016040518060600160405280603081526020016200647b6030913981526020016040518060600160405280603e815260200162004fa5603e9139815260200160405180608001604052806049815260200162005be46049913981526020016040518060600160405280603b8152602001620066a4603b913981526020016040518060600160405280602e81526020016200635c602e913981526020016040518060600160405280602b815260200162005e41602b913981526020016040518060600160405280603a815260200162005ece603a91398152602001604051806060016040528060318152602001620067626031913981526020016040518060800160405280605a8152602001620063ea605a913981526020016040518060800160405280604e81526020016200502f604e913981526020016040518060600160405280603a815260200162005e6c603a913981526020016040518060800160405280606081526020016200638a6060913981526020016040518060600160405280603781526020016200644460379139815260200160405180608001604052806044815260200162005c6a6044913981526020016040518060600160405280603b815260200162006321603b913981526020016040518060800160405280605f815260200162004ef4605f9139815260200160405180606001604052806030815260200162005cae6030913981526020016040518060a0016040528060668152602001620050bb606691398152602001604051806060016040528060328152602001620064e460329139815260200160405180606001604052806040815260200162005ada6040913981526020016040518060600160405280603e81526020016200507d603e91398152602001604051806060016040528060398152602001620064ab60399139815260200160405180606001604052806029815260200162005cde60299139815260200160405180606001604052806029815260200162005fec602991398152602001604051806060016040528060298152602001620061356029913981526020016040518060800160405280605e815260200162005f08605e913981526020016040518060800160405280604b8152602001620066df604b913981526020016040518060600160405280602d8152602001620062ca602d91398152602001604051806060016040528060348152602001620061016034913981526020016040518060800160405280604b815260200162006552604b913981526020016040518060600160405280602d815260200162006195602d9139815260200160405180608001604052806045815260200162005b9f60459139815260200160405180608001604052806058815260200162005b1a6058913981526020016040518060600160405280603c815260200162006516603c913981526020016040518060800160405280604c8152602001620065f4604c9139815260200160405180606001604052806037815260200162006640603791398152602001604051806060016040528060308152602001620059fb6030913981526020016040518060600160405280602c815260200162004ea3602c913981526020016040518060a00160405280607381526020016200605a6073913981526020016040518060600160405280602d815260200162005b72602d91398152602001604051806060016040528060328152602001620061fd6032913981526020016040518060800160405280604c815260200162004fe3604c913981526020016040518060600160405280602d815260200162006677602d913981526020016040518060600160405280602d815260200162005aad602d9139815260200160405180606001604052806038815260200162005f66603891398152602001604051806080016040528060458152602001620060156045913981526020016040518060600160405280603d815260200162005c2d603d9139815260200160405180606001604052806031815260200162005d846031913981526020016040518060600160405280602d815260200162005db5602d91398152602001604051806060016040528060308152602001620065c4603091398152602001604051806060016040528060298152602001620067936029913981526020016040518060600160405280603881526020016200672a60389139815260200160405180606001604052806036815260200162005a4c6036913981526020016040518060600160405280603b8152602001620061c2603b913981526020016040518060800160405280604e815260200162005f9e604e9139815260200160405180606001604052806029815260200162005de260299139815260200160405180606001604052806028815260200162005ea660289139815260200160405180606001604052806025815260200162004ecf6025913981526020016040518060600160405280603a815260200162004e69603a913981526020016040518060600160405280603781526020016200615e60379139815260200160405180608001604052806052815260200162004f5360529139815260200160405180606001604052806036815260200162005e0b603691398152602001604051806060016040528060348152602001620060cd6034913981526020016040518060600160405280603e81526020016200628c603e913981526020016040518060400160405280601d81526020017f4d616e2077697468206e6f206c6567732062756d732061726f756e642e00000081525081526020016040518060a00160405280607d815260200162005d07607d9139815250600b9060466200096b92919062001558565b506040518061052001604052806040518060400160405280601281526020017f4d617274696e204c7574686572204b696e67000000000000000000000000000081525081526020016040518060400160405280601181526020017f517565656e20456c697a6162657468204900000000000000000000000000000081525081526020016040518060400160405280600e81526020017f576f6f64726f772057696c736f6e00000000000000000000000000000000000081525081526020016040518060400160405280600f81526020017f536f6a6f75726e6572205472757468000000000000000000000000000000000081525081526020016040518060400160405280600f81526020017f4162726168616d204c696e636f6c6e000000000000000000000000000000000081525081526020016040518060400160405280600f81526020017f537573616e204220416e74686f6e79000000000000000000000000000000000081525081526020016040518060400160405280600e81526020017f566c6164696d6972204c656e696e00000000000000000000000000000000000081525081526020016040518060400160405280601381526020017f4d61727920576f6c6c73746f6e6563726166740000000000000000000000000081525081526020016040518060400160405280601481526020017f4672616e6b6c696e204420526f6f736576656c7400000000000000000000000081525081526020016040518060400160405280601281526020017f46726564657269636b20446f75676c617373000000000000000000000000000081525081526020016040518060400160405280600c81526020017f4d61796120416e67656c6f75000000000000000000000000000000000000000081525081526020016040518060400160405280601181526020017f57696e73746f6e20436875726368696c6c00000000000000000000000000000081525081526020016040518060400160405280600e81526020017f56697267696e696120576f6f6c6600000000000000000000000000000000000081525081526020016040518060400160405280600e81526020017f4a6f686e2046204b656e6e65647900000000000000000000000000000000000081525081526020016040518060400160405280601181526020017f44776967687420456973656e686f77657200000000000000000000000000000081525081526020016040518060400160405280600b81526020017f4175647265204c6f72646500000000000000000000000000000000000000000081525081526020016040518060400160405280600d81526020017f4a616d65732042616c6477696e0000000000000000000000000000000000000081525081526020016040518060400160405280600e81526020017f4e656c736f6e204d616e64656c6100000000000000000000000000000000000081525081526020016040518060400160405280601081526020017f47656e6572616c2041756e672053616e0000000000000000000000000000000081525081526020016040518060400160405280600d81526020017f4d6f74686572205465726573610000000000000000000000000000000000000081525081526020016040518060400160405280600d81526020017f44656e67205869616f70696e670000000000000000000000000000000000000081525081526020016040518060400160405280601281526020017f456d6d656c696e652050616e6b6875727374000000000000000000000000000081525081526020016040518060400160405280600e81526020017f4d616861746d612047616e64686900000000000000000000000000000000000081525081526020016040518060400160405280600b81526020017f4175647265204c6f72646500000000000000000000000000000000000000000081525081526020016040518060400160405280601081526020017f4e696b697461204b68727573636865760000000000000000000000000000000081525081526020016040518060400160405280601181526020017f456c65616e6f7220526f6f736576656c7400000000000000000000000000000081525081526020016040518060400160405280600981526020017f4d616c636f6c6d2058000000000000000000000000000000000000000000000081525081526020016040518060400160405280600e81526020017f476c6f72696120537465696e656d00000000000000000000000000000000000081525081526020016040518060400160405280601081526020017f41756e672053616e20537575204b79690000000000000000000000000000000081525081526020016040518060400160405280600f81526020017f5374657068656e204861776b696e67000000000000000000000000000000000081525081526020016040518060400160405280600e81526020017f4d696368656c6c65204f62616d6100000000000000000000000000000000000081525081526020016040518060400160405280600c81526020017f42617261636b204f62616d61000000000000000000000000000000000000000081525081526020016040518060400160405280601081526020017f4d616c616c6120596f757361667a61690000000000000000000000000000000081525081526020016040518060400160405280600f81526020017f4f73616d612042696e204c6164656e000000000000000000000000000000000081525081526020016040518060400160405280600e81526020017f53616464616d204875737365696e00000000000000000000000000000000000081525081526020016040518060400160405280600d81526020017f4a6f73657068205374616c696e0000000000000000000000000000000000000081525081526020016040518060400160405280601081526020017f47656e6572616c20416c2d416465656e0000000000000000000000000000000081525081526020016040518060400160405280600c81526020017f41646f6c66204869746c6572000000000000000000000000000000000000000081525081526020016040518060400160405280600981526020017f4d7573736f6c696e69000000000000000000000000000000000000000000000081525081526020016040518060400160405280600c81526020017f47656e67686973204b68616e000000000000000000000000000000000000000081525081526020016040518060400160405280601081526020017f536f6d652072616e646f6d206368616400000000000000000000000000000000815250815250600c906029620012fb929190620015bf565b503480156200130957600080fd5b506040518060400160405280601581526020017f5175657374696f6e61626c6551756f7465734e667400000000000000000000008152506040518060400160405280600781526020017f51514e667436390000000000000000000000000000000000000000000000000081525081600090805190602001906200138e929190620014c7565b508060019080519060200190620013a7929190620014c7565b505050620013f56040518060400160405280601781526020017f4e4654436f6e747261637420636f6e7374727563746564000000000000000000815250620013fb60201b62000d721760201c565b620017e0565b6200149b81604051602401620014129190620016f4565b6040516020818303038152906040527f41304fac000000000000000000000000000000000000000000000000000000007bffffffffffffffffffffffffffffffffffffffffffffffffffffffff19166020820180517bffffffffffffffffffffffffffffffffffffffffffffffffffffffff83818316178352505050506200149e60201b60201c565b50565b60008151905060006a636f6e736f6c652e6c6f679050602083016000808483855afa5050505050565b828054620014d5906200176a565b90600052602060002090601f016020900481019282620014f9576000855562001545565b82601f106200151457805160ff191683800117855562001545565b8280016001018555821562001545579182015b828111156200154457825182559160200191906001019062001527565b5b50905062001554919062001626565b5090565b828054828255906000526020600020908101928215620015ac579160200282015b82811115620015ab5782518290805190602001906200159a929190620014c7565b509160200191906001019062001579565b5b509050620015bb919062001645565b5090565b82805482825590600052602060002090810192821562001613579160200282015b828111156200161257825182908051906020019062001601929190620014c7565b5091602001919060010190620015e0565b5b50905062001622919062001645565b5090565b5b808211156200164157600081600090555060010162001627565b5090565b5b808211156200166957600081816200165f91906200166d565b5060010162001646565b5090565b5080546200167b906200176a565b6000825580601f106200168f5750620016b0565b601f016020900490600052602060002090810190620016af919062001626565b5b50565b6000620016c08262001718565b620016cc818562001723565b9350620016de81856020860162001734565b620016e981620017cf565b840191505092915050565b60006020820190508181036000830152620017108184620016b3565b905092915050565b600081519050919050565b600082825260208201905092915050565b60005b838110156200175457808201518184015260208101905062001737565b8381111562001764576000848401525b50505050565b600060028204905060018216806200178357607f821691505b602082108114156200179a5762001799620017a0565b5b50919050565b7f4e487b7100000000000000000000000000000000000000000000000000000000600052602260045260246000fd5b6000601f19601f8301169050919050565b61367980620017f06000396000f3fe608060405234801561001057600080fd5b50600436106100ea5760003560e01c80636352211e1161008c578063a22cb46511610066578063a22cb46514610249578063b88d4fde14610265578063c87b56dd14610281578063e985e9c5146102b1576100ea565b80636352211e146101cb57806370a08231146101fb57806395d89b411461022b576100ea565b8063095ea7b3116100c8578063095ea7b31461016d57806314f710fe1461018957806323b872dd1461019357806342842e0e146101af576100ea565b806301ffc9a7146100ef57806306fdde031461011f578063081812fc1461013d575b600080fd5b6101096004803603810190610104919061227c565b6102e1565b6040516101169190612909565b60405180910390f35b6101276103c3565b6040516101349190612924565b60405180910390f35b610157600480360381019061015291906122ce565b610455565b6040516101649190612879565b60405180910390f35b61018760048036038101906101829190612240565b6104da565b005b6101916105f2565b005b6101ad60048036038101906101a8919061213a565b61072d565b005b6101c960048036038101906101c4919061213a565b61078d565b005b6101e560048036038101906101e091906122ce565b6107ad565b6040516101f29190612879565b60405180910390f35b610215600480360381019061021091906120d5565b61085f565b6040516102229190612b84565b60405180910390f35b610233610917565b6040516102409190612924565b60405180910390f35b610263600480360381019061025e9190612204565b6109a9565b005b61027f600480360381019061027a9190612189565b610b2a565b005b61029b600480360381019061029691906122ce565b610b8c565b6040516102a89190612924565b60405180910390f35b6102cb60048036038101906102c691906120fe565b610cde565b6040516102d89190612909565b60405180910390f35b60007f80ac58cd000000000000000000000000000000000000000000000000000000007bffffffffffffffffffffffffffffffffffffffffffffffffffffffff1916827bffffffffffffffffffffffffffffffffffffffffffffffffffffffff191614806103ac57507f5b5e139f000000000000000000000000000000000000000000000000000000007bffffffffffffffffffffffffffffffffffffffffffffffffffffffff1916827bffffffffffffffffffffffffffffffffffffffffffffffffffffffff1916145b806103bc57506103bb82610e0b565b5b9050919050565b6060600080546103d290612e18565b80601f01602080910402602001604051908101604052809291908181526020018280546103fe90612e18565b801561044b5780601f106104205761010080835404028352916020019161044b565b820191906000526020600020905b81548152906001019060200180831161042e57829003601f168201915b5050505050905090565b600061046082610e75565b61049f576040517f08c379a000000000000000000000000000000000000000000000000000000000815260040161049690612ae4565b60405180910390fd5b6004600083815260200190815260200160002060009054906101000a900473ffffffffffffffffffffffffffffffffffffffff169050919050565b60006104e5826107ad565b90508073ffffffffffffffffffffffffffffffffffffffff168373ffffffffffffffffffffffffffffffffffffffff161415610556576040517f08c379a000000000000000000000000000000000000000000000000000000000815260040161054d90612b44565b60405180910390fd5b8073ffffffffffffffffffffffffffffffffffffffff16610575610ee1565b73ffffffffffffffffffffffffffffffffffffffff1614806105a457506105a38161059e610ee1565b610cde565b5b6105e3576040517f08c379a00000000000000000000000000000000000000000000000000000000081526004016105da90612a24565b60405180910390fd5b6105ed8383610ee9565b505050565b60006105fe6007610fa2565b9050600061060b82610fb0565b90506000610618836110ce565b9050600061062683836111ec565b905060008261063486611227565b60405160200161064592919061275f565b60405160208183030381529060405261065d836113d4565b60405160200161066e9291906127f0565b6040516020818303038152906040529050600061068a826113d4565b90506106963387611592565b6106bf86826040516020016106ab9190612835565b6040516020818303038152906040526115b0565b6106c96007611624565b6106ec6040518060600160405280602581526020016135df60259139873361163a565b7f1c05098ed1ff38e6238d2b1b04b2c7977d4c94ce651bda6473f9dba8dbf01da0338760405161071d9291906128e0565b60405180910390a1505050505050565b61073e610738610ee1565b826116d9565b61077d576040517f08c379a000000000000000000000000000000000000000000000000000000000815260040161077490612b64565b60405180910390fd5b6107888383836117b7565b505050565b6107a883838360405180602001604052806000815250610b2a565b505050565b6000806002600084815260200190815260200160002060009054906101000a900473ffffffffffffffffffffffffffffffffffffffff169050600073ffffffffffffffffffffffffffffffffffffffff168173ffffffffffffffffffffffffffffffffffffffff161415610856576040517f08c379a000000000000000000000000000000000000000000000000000000000815260040161084d90612a64565b60405180910390fd5b80915050919050565b60008073ffffffffffffffffffffffffffffffffffffffff168273ffffffffffffffffffffffffffffffffffffffff1614156108d0576040517f08c379a00000000000000000000000000000000000000000000000000000000081526004016108c790612a44565b60405180910390fd5b600360008373ffffffffffffffffffffffffffffffffffffffff1673ffffffffffffffffffffffffffffffffffffffff168152602001908152602001600020549050919050565b60606001805461092690612e18565b80601f016020809104026020016040519081016040528092919081815260200182805461095290612e18565b801561099f5780601f106109745761010080835404028352916020019161099f565b820191906000526020600020905b81548152906001019060200180831161098257829003601f168201915b5050505050905090565b6109b1610ee1565b73ffffffffffffffffffffffffffffffffffffffff168273ffffffffffffffffffffffffffffffffffffffff161415610a1f576040517f08c379a0000000000000000000000000000000000000000000000000000000008152600401610a16906129e4565b60405180910390fd5b8060056000610a2c610ee1565b73ffffffffffffffffffffffffffffffffffffffff1673ffffffffffffffffffffffffffffffffffffffff16815260200190815260200160002060008473ffffffffffffffffffffffffffffffffffffffff1673ffffffffffffffffffffffffffffffffffffffff16815260200190815260200160002060006101000a81548160ff0219169083151502179055508173ffffffffffffffffffffffffffffffffffffffff16610ad9610ee1565b73ffffffffffffffffffffffffffffffffffffffff167f17307eab39ab6107e8899845ad3d59bd9653f200f220920489ca2b5937696c3183604051610b1e9190612909565b60405180910390a35050565b610b3b610b35610ee1565b836116d9565b610b7a576040517f08c379a0000000000000000000000000000000000000000000000000000000008152600401610b7190612b64565b60405180910390fd5b610b8684848484611a13565b50505050565b6060610b9782610e75565b610bd6576040517f08c379a0000000000000000000000000000000000000000000000000000000008152600401610bcd90612ac4565b60405180910390fd5b6000600660008481526020019081526020016000208054610bf690612e18565b80601f0160208091040260200160405190810160405280929190818152602001828054610c2290612e18565b8015610c6f5780601f10610c4457610100808354040283529160200191610c6f565b820191906000526020600020905b815481529060010190602001808311610c5257829003601f168201915b505050505090506000610c80611a6f565b9050600081511415610c96578192505050610cd9565b600082511115610ccb578082604051602001610cb392919061275f565b60405160208183030381529060405292505050610cd9565b610cd484611a86565b925050505b919050565b6000600560008473ffffffffffffffffffffffffffffffffffffffff1673ffffffffffffffffffffffffffffffffffffffff16815260200190815260200160002060008373ffffffffffffffffffffffffffffffffffffffff1673ffffffffffffffffffffffffffffffffffffffff16815260200190815260200160002060009054906101000a900460ff16905092915050565b610e0881604051602401610d869190612924565b6040516020818303038152906040527f41304fac000000000000000000000000000000000000000000000000000000007bffffffffffffffffffffffffffffffffffffffffffffffffffffffff19166020820180517bffffffffffffffffffffffffffffffffffffffffffffffffffffffff8381831617835250505050611b2d565b50565b60007f01ffc9a7000000000000000000000000000000000000000000000000000000007bffffffffffffffffffffffffffffffffffffffffffffffffffffffff1916827bffffffffffffffffffffffffffffffffffffffffffffffffffffffff1916149050919050565b60008073ffffffffffffffffffffffffffffffffffffffff166002600084815260200190815260200160002060009054906101000a900473ffffffffffffffffffffffffffffffffffffffff1673ffffffffffffffffffffffffffffffffffffffff1614159050919050565b600033905090565b816004600083815260200190815260200160002060006101000a81548173ffffffffffffffffffffffffffffffffffffffff021916908373ffffffffffffffffffffffffffffffffffffffff160217905550808273ffffffffffffffffffffffffffffffffffffffff16610f5c836107ad565b73ffffffffffffffffffffffffffffffffffffffff167f8c5be1e5ebec7d5bd14f71427d1e84f3dd0314c0f7b2291e5b200ac8c7c3b92560405160405180910390a45050565b600081600001549050919050565b60606000610fe4610fc084611227565b604051602001610fd091906127ce565b604051602081830303815290604052611b56565b9050600b8054905081610ff79190612ec4565b9050600b8181548110611033577f4e487b7100000000000000000000000000000000000000000000000000000000600052603260045260246000fd5b90600052602060002001805461104890612e18565b80601f016020809104026020016040519081016040528092919081815260200182805461107490612e18565b80156110c15780601f10611096576101008083540402835291602001916110c1565b820191906000526020600020905b8154815290600101906020018083116110a457829003601f168201915b5050505050915050919050565b606060006111026110de84611227565b6040516020016110ee9190612857565b604051602081830303815290604052611b56565b9050600c80549050816111159190612ec4565b9050600c8181548110611151577f4e487b7100000000000000000000000000000000000000000000000000000000600052603260045260246000fd5b90600052602060002001805461116690612e18565b80601f016020809104026020016040519081016040528092919081815260200182805461119290612e18565b80156111df5780601f106111b4576101008083540402835291602001916111df565b820191906000526020600020905b8154815290600101906020018083116111c257829003601f168201915b5050505050915050919050565b60606000600884600985600a60405160200161120c959493929190612783565b60405160208183030381529060405290508091505092915050565b6060600082141561126f576040518060400160405280600181526020017f300000000000000000000000000000000000000000000000000000000000000081525090506113cf565b600082905060005b600082146112a157808061128a90612e7b565b915050600a8261129a9190612ca3565b9150611277565b60008167ffffffffffffffff8111156112e3577f4e487b7100000000000000000000000000000000000000000000000000000000600052604160045260246000fd5b6040519080825280601f01601f1916602001820160405280156113155781602001600182028036833780820191505090505b5090505b600085146113c85760018261132e9190612d2e565b9150600a8561133d9190612ec4565b60306113499190612c4d565b60f81b818381518110611385577f4e487b7100000000000000000000000000000000000000000000000000000000600052603260045260246000fd5b60200101907effffffffffffffffffffffffffffffffffffffffffffffffffffffffffffff1916908160001a905350600a856113c19190612ca3565b9450611319565b8093505050505b919050565b606060008251905060008114156113fd576040518060200160405280600081525091505061158d565b6000600360028361140e9190612c4d565b6114189190612ca3565b60046114249190612cd4565b905060006020826114359190612c4d565b67ffffffffffffffff811115611474577f4e487b7100000000000000000000000000000000000000000000000000000000600052604160045260246000fd5b6040519080825280601f01601f1916602001820160405280156114a65781602001600182028036833780820191505090505b5090506000604051806060016040528060408152602001613604604091399050600181016020830160005b8681101561154a5760038101905062ffffff818a015116603f8160121c168401518060081b905060ff603f83600c1c1686015116810190508060081b905060ff603f8360061c1686015116810190508060081b905060ff603f831686015116810190508060e01b905080845260048401935050506114d1565b50600386066001811461156457600281146115745761157f565b613d3d60f01b600283035261157f565b603d60f81b60018303525b508484525050819450505050505b919050565b6115ac828260405180602001604052806000815250611b89565b5050565b6115b982610e75565b6115f8576040517f08c379a00000000000000000000000000000000000000000000000000000000081526004016115ef90612a84565b60405180910390fd5b8060066000848152602001908152602001600020908051906020019061161f929190611f61565b505050565b6001816000016000828254019250508190555050565b6116d483838360405160240161165293929190612946565b6040516020818303038152906040527fe3849f79000000000000000000000000000000000000000000000000000000007bffffffffffffffffffffffffffffffffffffffffffffffffffffffff19166020820180517bffffffffffffffffffffffffffffffffffffffffffffffffffffffff8381831617835250505050611b2d565b505050565b60006116e482610e75565b611723576040517f08c379a000000000000000000000000000000000000000000000000000000000815260040161171a90612a04565b60405180910390fd5b600061172e836107ad565b90508073ffffffffffffffffffffffffffffffffffffffff168473ffffffffffffffffffffffffffffffffffffffff16148061179d57508373ffffffffffffffffffffffffffffffffffffffff1661178584610455565b73ffffffffffffffffffffffffffffffffffffffff16145b806117ae57506117ad8185610cde565b5b91505092915050565b8273ffffffffffffffffffffffffffffffffffffffff166117d7826107ad565b73ffffffffffffffffffffffffffffffffffffffff161461182d576040517f08c379a000000000000000000000000000000000000000000000000000000000815260040161182490612b04565b60405180910390fd5b600073ffffffffffffffffffffffffffffffffffffffff168273ffffffffffffffffffffffffffffffffffffffff16141561189d576040517f08c379a0000000000000000000000000000000000000000000000000000000008152600401611894906129c4565b60405180910390fd5b6118a8838383611be4565b6118b3600082610ee9565b6001600360008573ffffffffffffffffffffffffffffffffffffffff1673ffffffffffffffffffffffffffffffffffffffff16815260200190815260200160002060008282546119039190612d2e565b925050819055506001600360008473ffffffffffffffffffffffffffffffffffffffff1673ffffffffffffffffffffffffffffffffffffffff168152602001908152602001600020600082825461195a9190612c4d565b92505081905550816002600083815260200190815260200160002060006101000a81548173ffffffffffffffffffffffffffffffffffffffff021916908373ffffffffffffffffffffffffffffffffffffffff160217905550808273ffffffffffffffffffffffffffffffffffffffff168473ffffffffffffffffffffffffffffffffffffffff167fddf252ad1be2c89b69c2b068fc378daa952ba7f163c4a11628f55a4df523b3ef60405160405180910390a4505050565b611a1e8484846117b7565b611a2a84848484611be9565b611a69576040517f08c379a0000000000000000000000000000000000000000000000000000000008152600401611a6090612984565b60405180910390fd5b50505050565b606060405180602001604052806000815250905090565b6060611a9182610e75565b611ad0576040517f08c379a0000000000000000000000000000000000000000000000000000000008152600401611ac790612b24565b60405180910390fd5b6000611ada611a6f565b90506000815111611afa5760405180602001604052806000815250611b25565b80611b0484611227565b604051602001611b1592919061275f565b6040516020818303038152906040525b915050919050565b60008151905060006a636f6e736f6c652e6c6f679050602083016000808483855afa5050505050565b600081604051602001611b699190612748565b6040516020818303038152906040528051906020012060001c9050919050565b611b938383611d80565b611ba06000848484611be9565b611bdf576040517f08c379a0000000000000000000000000000000000000000000000000000000008152600401611bd690612984565b60405180910390fd5b505050565b505050565b6000611c0a8473ffffffffffffffffffffffffffffffffffffffff16611f4e565b15611d73578373ffffffffffffffffffffffffffffffffffffffff1663150b7a02611c33610ee1565b8786866040518563ffffffff1660e01b8152600401611c559493929190612894565b602060405180830381600087803b158015611c6f57600080fd5b505af1925050508015611ca057506040513d601f19601f82011682018060405250810190611c9d91906122a5565b60015b611d23573d8060008114611cd0576040519150601f19603f3d011682016040523d82523d6000602084013e611cd5565b606091505b50600081511415611d1b576040517f08c379a0000000000000000000000000000000000000000000000000000000008152600401611d1290612984565b60405180910390fd5b805181602001fd5b63150b7a0260e01b7bffffffffffffffffffffffffffffffffffffffffffffffffffffffff1916817bffffffffffffffffffffffffffffffffffffffffffffffffffffffff191614915050611d78565b600190505b949350505050565b600073ffffffffffffffffffffffffffffffffffffffff168273ffffffffffffffffffffffffffffffffffffffff161415611df0576040517f08c379a0000000000000000000000000000000000000000000000000000000008152600401611de790612aa4565b60405180910390fd5b611df981610e75565b15611e39576040517f08c379a0000000000000000000000000000000000000000000000000000000008152600401611e30906129a4565b60405180910390fd5b611e4560008383611be4565b6001600360008473ffffffffffffffffffffffffffffffffffffffff1673ffffffffffffffffffffffffffffffffffffffff1681526020019081526020016000206000828254611e959190612c4d565b92505081905550816002600083815260200190815260200160002060006101000a81548173ffffffffffffffffffffffffffffffffffffffff021916908373ffffffffffffffffffffffffffffffffffffffff160217905550808273ffffffffffffffffffffffffffffffffffffffff16600073ffffffffffffffffffffffffffffffffffffffff167fddf252ad1be2c89b69c2b068fc378daa952ba7f163c4a11628f55a4df523b3ef60405160405180910390a45050565b600080823b905060008111915050919050565b828054611f6d90612e18565b90600052602060002090601f016020900481019282611f8f5760008555611fd6565b82601f10611fa857805160ff1916838001178555611fd6565b82800160010185558215611fd6579182015b82811115611fd5578251825591602001919060010190611fba565b5b509050611fe39190611fe7565b5090565b5b80821115612000576000816000905550600101611fe8565b5090565b600061201761201284612bc4565b612b9f565b90508281526020810184848401111561202f57600080fd5b61203a848285612dd6565b509392505050565b60008135905061205181613582565b92915050565b60008135905061206681613599565b92915050565b60008135905061207b816135b0565b92915050565b600081519050612090816135b0565b92915050565b600082601f8301126120a757600080fd5b81356120b7848260208601612004565b91505092915050565b6000813590506120cf816135c7565b92915050565b6000602082840312156120e757600080fd5b60006120f584828501612042565b91505092915050565b6000806040838503121561211157600080fd5b600061211f85828601612042565b925050602061213085828601612042565b9150509250929050565b60008060006060848603121561214f57600080fd5b600061215d86828701612042565b935050602061216e86828701612042565b925050604061217f868287016120c0565b9150509250925092565b6000806000806080858703121561219f57600080fd5b60006121ad87828801612042565b94505060206121be87828801612042565b93505060406121cf878288016120c0565b925050606085013567ffffffffffffffff8111156121ec57600080fd5b6121f887828801612096565b91505092959194509250565b6000806040838503121561221757600080fd5b600061222585828601612042565b925050602061223685828601612057565b9150509250929050565b6000806040838503121561225357600080fd5b600061226185828601612042565b9250506020612272858286016120c0565b9150509250929050565b60006020828403121561228e57600080fd5b600061229c8482850161206c565b91505092915050565b6000602082840312156122b757600080fd5b60006122c584828501612081565b91505092915050565b6000602082840312156122e057600080fd5b60006122ee848285016120c0565b91505092915050565b61230081612d62565b82525050565b61230f81612d74565b82525050565b600061232082612c0a565b61232a8185612c20565b935061233a818560208601612de5565b61234381612fb1565b840191505092915050565b600061235982612c15565b6123638185612c31565b9350612373818560208601612de5565b61237c81612fb1565b840191505092915050565b600061239282612c15565b61239c8185612c42565b93506123ac818560208601612de5565b80840191505092915050565b600081546123c581612e18565b6123cf8186612c42565b945060018216600081146123ea57600181146123fb5761242e565b60ff1983168652818601935061242e565b61240485612bf5565b60005b8381101561242657815481890152600182019150602081019050612407565b838801955050505b50505092915050565b6000612444600683612c42565b915061244f82612fc2565b600682019050919050565b6000612467603283612c31565b915061247282612feb565b604082019050919050565b600061248a601c83612c31565b91506124958261303a565b602082019050919050565b60006124ad602483612c31565b91506124b882613063565b604082019050919050565b60006124d0601983612c31565b91506124db826130b2565b602082019050919050565b60006124f3602c83612c31565b91506124fe826130db565b604082019050919050565b6000612516603883612c31565b91506125218261312a565b604082019050919050565b6000612539602a83612c31565b915061254482613179565b604082019050919050565b600061255c602983612c31565b9150612567826131c8565b604082019050919050565b600061257f602e83612c31565b915061258a82613217565b604082019050919050565b60006125a2600283612c42565b91506125ad82613266565b600282019050919050565b60006125c5602083612c31565b91506125d08261328f565b602082019050919050565b60006125e8603183612c31565b91506125f3826132b8565b604082019050919050565b600061260b602c83612c31565b915061261682613307565b604082019050919050565b600061262e602983612c31565b915061263982613356565b604082019050919050565b6000612651602f83612c31565b915061265c826133a5565b604082019050919050565b6000612674600a83612c42565b915061267f826133f4565b600a82019050919050565b6000612697602183612c31565b91506126a28261341d565b604082019050919050565b60006126ba601d83612c42565b91506126c58261346c565b601d82019050919050565b60006126dd603183612c31565b91506126e882613495565b604082019050919050565b6000612700604f83612c42565b915061270b826134e4565b604f82019050919050565b6000612723600683612c42565b915061272e82613559565b600682019050919050565b61274281612dcc565b82525050565b60006127548284612387565b915081905092915050565b600061276b8285612387565b91506127778284612387565b91508190509392505050565b600061278f82886123b8565b915061279b8287612387565b91506127a782866123b8565b91506127b38285612387565b91506127bf82846123b8565b91508190509695505050505050565b60006127d982612437565b91506127e58284612387565b915081905092915050565b60006127fb82612667565b91506128078285612387565b9150612812826126f3565b915061281e8284612387565b915061282982612595565b91508190509392505050565b6000612840826126ad565b915061284c8284612387565b915081905092915050565b600061286282612716565b915061286e8284612387565b915081905092915050565b600060208201905061288e60008301846122f7565b92915050565b60006080820190506128a960008301876122f7565b6128b660208301866122f7565b6128c36040830185612739565b81810360608301526128d58184612315565b905095945050505050565b60006040820190506128f560008301856122f7565b6129026020830184612739565b9392505050565b600060208201905061291e6000830184612306565b92915050565b6000602082019050818103600083015261293e818461234e565b905092915050565b60006060820190508181036000830152612960818661234e565b905061296f6020830185612739565b61297c60408301846122f7565b949350505050565b6000602082019050818103600083015261299d8161245a565b9050919050565b600060208201905081810360008301526129bd8161247d565b9050919050565b600060208201905081810360008301526129dd816124a0565b9050919050565b600060208201905081810360008301526129fd816124c3565b9050919050565b60006020820190508181036000830152612a1d816124e6565b9050919050565b60006020820190508181036000830152612a3d81612509565b9050919050565b60006020820190508181036000830152612a5d8161252c565b9050919050565b60006020820190508181036000830152612a7d8161254f565b9050919050565b60006020820190508181036000830152612a9d81612572565b9050919050565b60006020820190508181036000830152612abd816125b8565b9050919050565b60006020820190508181036000830152612add816125db565b9050919050565b60006020820190508181036000830152612afd816125fe565b9050919050565b60006020820190508181036000830152612b1d81612621565b9050919050565b60006020820190508181036000830152612b3d81612644565b9050919050565b60006020820190508181036000830152612b5d8161268a565b9050919050565b60006020820190508181036000830152612b7d816126d0565b9050919050565b6000602082019050612b996000830184612739565b92915050565b6000612ba9612bba565b9050612bb58282612e4a565b919050565b6000604051905090565b600067ffffffffffffffff821115612bdf57612bde612f82565b5b612be882612fb1565b9050602081019050919050565b60008190508160005260206000209050919050565b600081519050919050565b600081519050919050565b600082825260208201905092915050565b600082825260208201905092915050565b600081905092915050565b6000612c5882612dcc565b9150612c6383612dcc565b9250827fffffffffffffffffffffffffffffffffffffffffffffffffffffffffffffffff03821115612c9857612c97612ef5565b5b828201905092915050565b6000612cae82612dcc565b9150612cb983612dcc565b925082612cc957612cc8612f24565b5b828204905092915050565b6000612cdf82612dcc565b9150612cea83612dcc565b9250817fffffffffffffffffffffffffffffffffffffffffffffffffffffffffffffffff0483118215151615612d2357612d22612ef5565b5b828202905092915050565b6000612d3982612dcc565b9150612d4483612dcc565b925082821015612d5757612d56612ef5565b5b828203905092915050565b6000612d6d82612dac565b9050919050565b60008115159050919050565b60007fffffffff0000000000000000000000000000000000000000000000000000000082169050919050565b600073ffffffffffffffffffffffffffffffffffffffff82169050919050565b6000819050919050565b82818337600083830152505050565b60005b83811015612e03578082015181840152602081019050612de8565b83811115612e12576000848401525b50505050565b60006002820490506001821680612e3057607f821691505b60208210811415612e4457612e43612f53565b5b50919050565b612e5382612fb1565b810181811067ffffffffffffffff82111715612e7257612e71612f82565b5b80604052505050565b6000612e8682612dcc565b91507fffffffffffffffffffffffffffffffffffffffffffffffffffffffffffffffff821415612eb957612eb8612ef5565b5b600182019050919050565b6000612ecf82612dcc565b9150612eda83612dcc565b925082612eea57612ee9612f24565b5b828206905092915050565b7f4e487b7100000000000000000000000000000000000000000000000000000000600052601160045260246000fd5b7f4e487b7100000000000000000000000000000000000000000000000000000000600052601260045260246000fd5b7f4e487b7100000000000000000000000000000000000000000000000000000000600052602260045260246000fd5b7f4e487b7100000000000000000000000000000000000000000000000000000000600052604160045260246000fd5b6000601f19601f8301169050919050565b7f71756f7465730000000000000000000000000000000000000000000000000000600082015250565b7f4552433732313a207472616e7366657220746f206e6f6e20455243373231526560008201527f63656976657220696d706c656d656e7465720000000000000000000000000000602082015250565b7f4552433732313a20746f6b656e20616c7265616479206d696e74656400000000600082015250565b7f4552433732313a207472616e7366657220746f20746865207a65726f2061646460008201527f7265737300000000000000000000000000000000000000000000000000000000602082015250565b7f4552433732313a20617070726f766520746f2063616c6c657200000000000000600082015250565b7f4552433732313a206f70657261746f7220717565727920666f72206e6f6e657860008201527f697374656e7420746f6b656e0000000000000000000000000000000000000000602082015250565b7f4552433732313a20617070726f76652063616c6c6572206973206e6f74206f7760008201527f6e6572206e6f7220617070726f76656420666f7220616c6c0000000000000000602082015250565b7f4552433732313a2062616c616e636520717565727920666f7220746865207a6560008201527f726f206164647265737300000000000000000000000000000000000000000000602082015250565b7f4552433732313a206f776e657220717565727920666f72206e6f6e657869737460008201527f656e7420746f6b656e0000000000000000000000000000000000000000000000602082015250565b7f45524337323155524953746f726167653a2055524920736574206f66206e6f6e60008201527f6578697374656e7420746f6b656e000000000000000000000000000000000000602082015250565b7f227d000000000000000000000000000000000000000000000000000000000000600082015250565b7f4552433732313a206d696e7420746f20746865207a65726f2061646472657373600082015250565b7f45524337323155524953746f726167653a2055524920717565727920666f722060008201527f6e6f6e6578697374656e7420746f6b656e000000000000000000000000000000602082015250565b7f4552433732313a20617070726f76656420717565727920666f72206e6f6e657860008201527f697374656e7420746f6b656e0000000000000000000000000000000000000000602082015250565b7f4552433732313a207472616e73666572206f6620746f6b656e2074686174206960008201527f73206e6f74206f776e0000000000000000000000000000000000000000000000602082015250565b7f4552433732314d657461646174613a2055524920717565727920666f72206e6f60008201527f6e6578697374656e7420746f6b656e0000000000000000000000000000000000602082015250565b7f7b226e616d65223a202200000000000000000000000000000000000000000000600082015250565b7f4552433732313a20617070726f76616c20746f2063757272656e74206f776e6560008201527f7200000000000000000000000000000000000000000000000000000000000000602082015250565b7f646174613a6170706c69636174696f6e2f6a736f6e3b6261736536342c000000600082015250565b7f4552433732313a207472616e736665722063616c6c6572206973206e6f74206f60008201527f776e6572206e6f7220617070726f766564000000000000000000000000000000602082015250565b7f222c20226465736372697074696f6e223a202241207175657374696f6e61626c60008201527f652071756f746520222c2022696d616765223a2022646174613a696d6167652f60208201527f7376672b786d6c3b6261736536342c0000000000000000000000000000000000604082015250565b7f70656f706c650000000000000000000000000000000000000000000000000000600082015250565b61358b81612d62565b811461359657600080fd5b50565b6135a281612d74565b81146135ad57600080fd5b50565b6135b981612d80565b81146135c457600080fd5b50565b6135d081612dcc565b81146135db57600080fd5b5056fe416e204e465420772f20494420257320686173206265656e206d696e74656420746f2025734142434445464748494a4b4c4d4e4f505152535455565758595a6162636465666768696a6b6c6d6e6f707172737475767778797a303132333435363738392b2fa2646970667358221220a762ff6f77daffeb5f5773754622692a9f8e1497051e4db699738b97779573e464736f6c634300080400334368696e65736520636f75706c652077686f206861766520776869746520626162792c206e616d652069742053756d2054696e6720576f6e672e4d616e2077686f206472697665206c696b652068656c6c2c20626f756e6420746f20676574207468657265214d616e2077686f207469656420746f20636861697220626f756e6420746f2061677265652e47697665206d616e20666973682c20666565642068696d20666f722061206461792e205465616368206d616e20746f20666973682c206d616e206275696c6420696e64757374727920616e642064657374726f792065636f73797374656d2e48652077686f207468696e6b732062792074686520696e636820616e642074616c6b7320627920746865207961726420646573657276657320746f206265206b69636b65642062792074686520666f6f742e4d616e2077686f20736e65657a657320776974686f7574207469737375652074616b6573206d61747465727320696e20686973206f776e2068616e64732e4d616e2077686f2072756e20696e2066726f6e74206f6620636172206765742074697265642e204d616e2077686f2072756e20626568696e642063617220676574206578686175737465642e48652077686f207468696e6b73206f6e6c79206f66206e756d626572206f6e65206d7573742072656d656d6265722074686973206e756d626572206973206e65787420746f206e6f7468696e672e50617373696f6e617465206b697373206c696b652073706964657227732077656220736f6f6e206c65616420746f20756e646f696e67206f6620666c792e537465616c2061206d616e27732077616c6c657420616e64206865276c6c20626520706f6f7220666f722061207765656b2e20546561636820686f636b657920746f20686973206b69647320616e64206865276c6c20626520706f6f7220666f72657665722e3c3f786d6c2076657273696f6e3d22312e302220656e636f64696e673d227574662d38223f3e3c73766720786d6c6e733d22687474703a2f2f7777772e77332e6f72672f323030302f7376672220786d6c6e733a786c696e6b3d22687474703a2f2f7777772e77332e6f72672f313939392f786c696e6b222077696474683d2237323022206865696768743d2233353022207072657365727665417370656374526174696f3d22784d6964594d6964222076696577426f783d22302030203732302033353222207374796c653d227a2d696e6465783a313b646973706c61793a626c6f636b3b6261636b67726f756e642d636f6c6f723a726762283131382c2033382c20313135293b616e696d6174696f6e2d706c61792d73746174653a72756e6e696e6722203e3c67207472616e73666f726d3d227472616e736c617465283336302c31373629207363616c6528312c3129207472616e736c617465282d3336302c2d3137362922207374796c653d22616e696d6174696f6e2d706c61792d73746174653a72756e6e696e6722203e3c6c696e6561724772616469656e742069643d226c672d302e38373437343330303634393931383235222078313d2230222078323d2231222079313d2230222079323d223022207374796c653d22616e696d6174696f6e2d706c61792d73746174653a72756e6e696e6722203e3c73746f702073746f702d636f6c6f723d222366663030666622206f66667365743d223022207374796c653d22616e696d6174696f6e2d706c61792d73746174653a72756e6e696e6722203e3c2f73746f703e0a3c73746f702073746f702d636f6c6f723d222330306666666622206f66667365743d223122207374796c653d22616e696d6174696f6e2d706c61792d73746174653a72756e6e696e6722203e3c2f73746f703e3c2f6c696e6561724772616469656e743e0a3c7061746820643d224d3020304c30203238392e35353637363236393533313235513732203330302e373635333139383234323138373520313434203237342e3434313535383833373839303654323838203236302e3634373336393338343736353654343332203139312e353536373031363630313536323554353736203139322e313435303334373930303339303654373230203135332e36363133313539313739363837354c37323020307a222066696c6c3d2275726c28236c672d302e383734373433303036343939313832352922206f7061636974793d22302e3422207374796c653d226f7061636974793a302e343b616e696d6174696f6e2d706c61792d73746174653a70617573656422203e3c2f706174683e0a3c7061746820643d224d3020304c30203334322e31383634303133363731383735513732203332362e3138313138323836313332383120313434203330312e303430353838333738393036323554323838203235362e3230363137363735373831323554343332203139382e363739343538363138313634303654353736203139302e3135363930363132373932393754373230203135382e363731353534353635343239374c37323020307a222066696c6c3d2275726c28236c672d302e383734373433303036343939313832352922206f7061636974793d22302e3422207374796c653d226f7061636974793a302e343b616e696d6174696f6e2d706c61792d73746174653a70617573656422203e3c2f706174683e0a3c7061746820643d224d3020304c30203331392e31303933343434383234323139513732203331302e3733393632343032333433373520313434203237342e3237303936353537363137313954323838203237312e34333039303832303331323554343332203232302e393936343239343433333539333854353736203137392e383731303633323332343231383854373230203137302e353139303838373435313137324c37323020307a222066696c6c3d2275726c28236c672d302e383734373433303036343939313832352922206f7061636974793d22302e3422207374796c653d226f7061636974793a302e343b616e696d6174696f6e2d706c61792d73746174653a70617573656422203e3c2f706174683e0a3c7061746820643d224d3020304c30203333372e30373738353033343137393639513732203333332e3136353938353130373432313920313434203239382e3033313231393438323432313954323838203233352e3330313633353734323138373554343332203232332e383734373731313138313634303654353736203137382e383234383133383432373733343454373230203134322e353939333139343538303037384c37323020307a222066696c6c3d2275726c28236c672d302e383734373433303036343939313832352922206f7061636974793d22302e3422207374796c653d226f7061636974793a302e343b616e696d6174696f6e2d706c61792d73746174653a70617573656422203e3c2f706174683e0a3c7061746820643d224d3020304c30203331342e303138373938383238313235513732203332302e3533343035373631373138373520313434203238322e3035353239373835313536323554323838203236332e3139323737393534313031353654343332203231322e363537303839323333333938343454353736203138342e353633363930313835353436383854373230203137322e303037313536333732303730334c37323020307a222066696c6c3d2275726c28236c672d302e383734373433303036343939313832352922206f7061636974793d22302e3422207374796c653d226f7061636974793a302e343b616e696d6174696f6e2d706c61792d73746174653a70617573656422203e3c2f706174683e3c2f673e0a3c7374796c653e2e62617365207b2066696c6c3a2077686974653b20666f6e742d66616d696c793a2073657269662d626f6c643b20666f6e742d73697a653a20313470783b207d3c2f7374796c653e0a3c7465787420783d223530252220793d223530252220636c6173733d22626173652220646f6d696e616e742d626173656c696e653d226d6964646c652220746578742d616e63686f723d226d6964646c65223e4d756d6d79732077686f2074616b65207661636174696f6e2c2077696c6c2072656c617820616e6420756e77696e642e4d616e2077697468206f6e652063686f70737469636b20676f2068756e6772792e4d616e2077686f206d616b65206d697374616b6520696e20656c657661746f722077726f6e67206f6e206d616e79206c6576656c732e48652077686f20686173206120736861727020746f6e6775652c2063757473206f776e207468726f61742e4d616e2077686f2064726f7020776174636820696e20776869736b792069732077617374696e672074696d652e5768656e206d616e206272696e67207769666520666c6f7765727320666f72206e6f20726561736f6e2c20746865726520757375616c6c7920726561736f6e2e576f6d616e2077686f20636f6d6520746f206265642077656172696e67206e6f7468696e67206275742072756e6e696e672073686f65732c2077616e747320746f2068617665206d61726174686f6e2073657373696f6e2e446f6e2774206472696e6b20616e64207061726b2c206163636964656e74732063617573652070656f706c652e576f6d616e2077686f20616273656e746d696e6465646c7920616e737765722074686520646f6f7220696e20686572206e696768746965206973206e65676c6967656e742e496620736f6d657468696e672068617070656e20627574206e6f626f647920706f7374206974206f6e2046616365626f6f6b2c20646964206974207265616c6c792068617070656e3f4d616e2077686f20707573686573207069616e6f20646f776e206d696e6573686166742067657420746f6e65206f66204120666c6174206d696e65722e45766572796f6e652068617320612070686f746f67726170686963206d656d6f72792c20736f6d652070656f706c65206a75737420646f6e7420686176652066696c6d2148652077686f2069732073747570696420746f646179206973207374696c6c2073747570696420746f6d6f72726f772e576f6d616e2077686f2064617465732067616d626c65722c20676574732063686561746564206f6e2e476976652061206d616e20736f6d65206669726520616e64206865276c6c206265207761726d20666f72207468652072657374206f6620746865206461792e205365742061206d616e206f6e206669726520616e64206865276c6c206265207761726d20666f72207468652072657374206f6620686973206c6966652e4d616e2077686f2073686f6f74206f6666206d6f757468206d7573742065787065637420746f206c6f736520666163652e4d616e20776974682074696768742074726f7573657273206973207072657373696e6720686973206c75636b2e43726f73732d6579656420746561636865722063616e6e6f7420636f6e74726f6c20707570696c732e4d616e2077686f206c69766520696e20676c61737320686f7573652073686f756c64206368616e676520696e20626173656d656e742e43726f7764656420656c657661746f7220736d656c6c20646966666572656e7420746f206d69646765742e576172206e6f742064657465726d696e652077686f2069732072696768742c207761722064657465726d696e652077686f206973206c6566742e48652077686f206c6175676873206c61737420646964206e6f742067657420746865206a6f6b652e4d616e2077686f20707574206f6e2069746368792073776561746572207374617274206576657279206461792066726f6d20736372617463682e4d616e2077686f206f70656e2063617220646f6f7220666f72206769726c667269656e642072657665616c206f6e65207468696e673a2065697468657220636172206973206e6577206f72206769726c667269656e64206973206e65772e41206275746c65722077697468206e6f2074656574682069732063616c6c656420616e20696e2d64656e74757265642073657276616e742e4d616e2077686f206b65657020626f74682066656574206669726d6c7920706c616e746564206f6e2067726f756e6420686176652074726f75626c652070757474696e67206f6e2070616e74732e4d616e2077697468206174686c657469632066696e676572206d616b652062726f6164206a756d702e4d616e2077686f206769766520757020616c6c20686f7065206f66206576657220686176696e67206120666c61742073746f6d6163682077696c6c2061626469636174652e492077616e7420746f2064696520706561636566756c6c7920696e206d7920736c656570206c696b65206d79206772616e646661746865722e204e6f742073637265616d696e6720616e642079656c6c696e67206c696b65207468652070617373656e6765727320696e20686973206361722e576f6d616e2077686f207075747320646574657267656e74206f6e20746f70207368656c662c206a756d7020666f72204a6f792e48652077686f206669736820696e206f74686572206d616e27732077656c6c206f6674656e20636174636865732063726162732e576f6d616e206c61696420696e20746f6d62206d617920736f6f6e206265636f6d65206d756d6d792e48652077686f20706c61636573206865616420696e2073616e642c2077696c6c20676574206b69636b656420696e2074686520656e64214d616e2077686f207265616420776f6d616e206c696b6520626f6f6b2c2070726566657220627261696c6c65215768656e2064656e746973742073617920276f70656e2077696465272c20646f6573206865206d65616e206d6f757468206f722077616c6c65743f4d616e2077686f2067657420686974206279206361722c2067657420746861742072756e2d646f776e206665656c696e672e3c2f746578743e0a3c7465787420783d223830252220793d223830252220636c6173733d22626173652220646f6d696e616e742d626173656c696e653d226d6964646c652220746578742d616e63686f723d226d6964646c65223e2d204d616e2077686f2074656c6c206f6e6520746f6f206d616e79206c696768742062756c62206a6f6b65732077696c6c20736f6f6e206275726e206f7574214e6f2068757362616e642065766572206265656e2073686f74207768696c6520686520646f206469736865732e4d616e2077686f206375742073656c66207768696c652073686176696e672c206c6f736520666163652e4d616e2077686f206861766520636c65617220636f6e736369656e636520757375616c6c79206861766520626164206d656d6f72792c20746f6f2e5769746820677265617420706f77657220636f6d657320677265617420656c6563747269636974792062696c6c2e4d616e2077686f207075742068656164206f6e207261696c726f616420747261636b20746f206c697374656e20666f7220747261696e206c696b656c7920746f20656e6420757020776974682073706c697474696e672068656164616368652e5768656e2063616c6c656420616e206964696f7420736f6d6574696d65732069732062657474657220746f206265207175696574207468616e206f70656e206d6f75746820616e642072656d6f766520616c6c20646f7562742e537570706f72742062616374657269612069747320746865206f6e6c792063756c7475726520736f6d652070656f706c6520686176652e4d616e2077686f2077616c6b2077697468206e6f736520696e206169722076657279206561737920746f20686f6f6b2e426f7920666f6f6c2077697468206769726c20696e2077726f6e6720706572696f642067657420636175676874207265642068616e6465642e48652077686f20737469636b206865616420696e206f70656e2077696e646f77206765742070616e6520696e206e65636b2e48757362616e642077686f20736c656570206f6e20636f756368206c617374206e696768742c206861766520686172642074696d6520746f6461792e5374617465206f6620707265676e616e6379206578697374207768656e20776f6d616e2074616b657320736572696f75736c7920736f6d657468696e6720706f6b656420696e2066756e2e41206269726420696e2068616e64206d616b6573206861726420746f20626c6f77206e6f73652e496620796f752077616e7420707265747479206e757273652c20796f7520676f7420746f2062652070617469656e742e4d61727269616765206973206c696b652067616d65206f6620706f6b65722e20596f752073746172742077697468207061697220616e6420656e6420776974682066756c6c20686f7573652e4d616e2077686f2066696768742077697468207769666520616c6c206461792c20676574206e6f207069656365206174206e696768742e4d616e2077686f206a756d7073206f666620636c6966662c206a756d707320746f20636f6e636c7573696f6e214d616e2077686f2066616c6c20696e20766174206f66206d6f6c74656e20676c617373206d616b6520737065637461636c65206f662073656c662e426568696e64206576657279207375636365737366756c206d616e20697320676f6f6420776f6d616e20616e64207665727920737572707269736564206d6f746865722d696e2d6c61772e426c696e64206d616e2077686f2070656573206f6e20656c6563747269632066656e63652077696c6c2073656520746865206c696768742e4d616e2077686f20646f65732076657279206c6974746c65206d616b6573207665727920666577206d697374616b65732e4d616e2077686f2061627573652068697320636f6d7075746572206765742062616420627974657321",
  "linkReferences": {},
  "deployedLinkReferences": {}
}